:100000000C9434000C9449000C9449000C94490061
:100010000C9449000C9449000C9449000C9449003C
:100020000C9449000C9449000C9449000C9449002C
:100030000C9449000C9449000C9449000C9449001C
:100040000C9449000C9449000C9449000C9449000C
:100050000C9449000C9449000C9449000C944900FC
:100060000C9449000C94490011241FBECFEFD8E036
:10007000DEBFCDBF11E0A0E0B1E0ECE3F1E002C0F3
:1000800005900D92A03AB107D9F70E944B000C944D
:100090009C000C940000CF93DF93CDB7DEB7C05A1D
:1000A000D1090FB6F894DEBF0FBECDBF85E08AB987
:1000B00084E084B988E9E0E0F1E0DE011196019086
:1000C0000D928A95E1F788E0E8E9F1E0DE01A756B4
:1000D000BF4F01900D928A95E1F78E0101571F4F96
:1000E00069E970E06C0F7D1F685F7F4FCE0101965C
:1000F00024E130E0FE01E756FF4F7C01419140953D
:1001000045B9D7014D917D0145B9AFE9BFE01197E0
:10011000F1F700C00000AF0141505109DA014C91E4
:100120004BB9E617F70751F72150310919F7019636
:0C01300080179107E9F6DACFF894FFCFB2
:10013C00000000000000000000000000C3C3C3C3A7
:10014C00E77E3C0000C3C3C3FFFFC3C3C3000079F9
:10015C00FBDFDEDCD8FFFF000000C3C3C3C3E77EB8
:10016C003C0000FEFF03030303FFFE0000C3C3C3F8
:10017C00FFFFC3C3C30000C0C0C0FFFFC0C0C000AE
:10018C0000007EBDC3C3C3FFFF0000C3C3C3FFFF9A
:10019C00C3C3C300001FDFD8DBDBDBFFFF000000A5
:1001AC00DBDBDBDBDBFFFF0000CEDFDBDBDBDBFBEA
:1001BC00730000C0C0C0FFFFC0C0C0000000000042
:1001CC000000000000000000010204081020408024
:00000001FF
